{
  "contractName": "HelloWorld",
  "abi": [
    {
      "constant": true,
      "inputs": [],
      "name": "sayhello",
      "outputs": [
        {
          "name": "",
          "type": "string"
        }
      ],
      "payable": false,
      "stateMutability": "pure",
      "type": "function"
    }
  ],
  "bytecode": "0x608060405234801561001057600080fd5b50610165806100206000396000f3fe608060405260043610610041576000357c0100000000000000000000000000000000000000000000000000000000900463ffffffff16806327a03cd714610046575b600080fd5b34801561005257600080fd5b5061005b6100d6565b6040518080602001828103825283818151815260200191508051906020019080838360005b8381101561009b578082015181840152602081019050610080565b50505050905090810190601f1680156100c85780820380516001836020036101000a031916815260200191505b509250505060405180910390f35b60608060405190810160405280602481526020017f48656c6c6f20576f726c64204d6f746865726675636b6572206968722046696381526020017f6b6572210000000000000000000000000000000000000000000000000000000081525090509056fea165627a7a72305820321b70ee5959d1e1a20e0e6acbf93fde917a7825e701e776380401f8b4abc0880029",
  "source": "pragma solidity >=0.5.0 <0.6.0;\n\ncontract HelloWorld {\n    function sayhello() public pure returns(string memory) {\n        return \"Hello World Motherfucker ihr Ficker!\";\n    }\n}\n",
  "sourcePath": "/Users/marvin/Visual Studio Code Workspace/AES_BLOCKCHAIN/contracts/HelloWorld.sol",
  "compiler": {
    "name": "solc",
    "version": "0.5.0+commit.1d4f565a.Emscripten.clang"
  },
  "schemaVersion": "3.0.9",
  "updatedAt": "2019-06-11T08:29:29.084Z",
  "devdoc": {
    "methods": {}
  },
  "userdoc": {
    "methods": {}
  }
}